:100000000C942A000C9447000C9447000C94470071
:100010000C9447000C9447000C9447000C94470044
:100020000C9447000C9447000C9447000C94470034
:100030000C9447000C9447000C9447000C94470024
:100040000C9447000C9447000C9447000C94470014
:100050000C94470011241FBECFE5D8E0DEBFCDBF12
:1000600010E0A0E6B0E0EEE1F6E002C005900D92EF
:10007000A638B107D9F720E0A6E8B0E001C01D928C
:10008000AC3EB207E1F70E9487020C940D030C947A
:10009000000081B3807F81BB81B3806F81BB8FEF14
:1000A00082BB0895EF92FF920F931F93CF93DF933C
:1000B000C0E6D0E060E070E0DE0141E050E092B3E5
:1000C000FA010C9002C0EE0FFF1F0A94E2F79A01AA
:1000D00012960C90129702C0220F331F0A94E2F777
:1000E0002E2B822F892B9A0114960C90149702C004
:1000F000220F331F0A94E2F7282BCA0116960C90A0
:10010000169702C0880F991F0A94E2F7822B82BBD0
:1001100092B3888122969A0102C0220F331F8A95DA
:10012000E2F7822F8095892382BBE8E6F0E0EE2497
:10013000E394F12C00E010E005C00F5F1F4F8FEF3C
:10014000E81AF80A80B32081329690E0022E02C0AD
:10015000959587950A94E2F780FD50C0CA0102C0C8
:10016000880F991F2A95E2F79C0180B390E08223C3
:100170009323892BD1F361307105C9F024F4611503
:10018000710541F03BC062307105F1F063307105DB
:1001900041F134C001151105F1F101301105E9F10A
:1001A00002301105E1F10330110541F53AC00115A6
:1001B0001105C9F101301105C1F102301105B9F184
:1001C00003301105D9F435C001151105A1F1013035
:1001D000110599F10230110591F10330110571F407
:1001E00030C00115110579F10130110571F10230AE
:1001F000110569F10330110571F52BC094E0E91682
:10020000F1040CF49ACF6F5F7F4F6430710509F0F1
:1002100056CF81E426C087E324C084E322C081E373
:1002200020C08FE31EC088E31CC085E31AC082E3B0
:1002300018C080E316C089E314C086E312C083E3CC
:1002400010C08DE30EC08FE20CC08AE20AC08DE2BE
:1002500008C08BE206C084E0E816F1040CF46DCF10
:1002600081E4DF91CF911F910F91FF90EF9008955E
:10027000C09A83ED90E30197F1F700C00000C098A9
:1002800008958AB38F708ABBC29AC1980E943801C0
:100290008AB3806F8ABBC2980895CF93C82F0E94FB
:1002A0004101CBBB88B3897F88BB89EF90E0019780
:1002B000F1F700C000000E943801CF91089581E05D
:1002C0000E944D01089587E893E10197F1F700C07E
:1002D000000087B3876087BB88B3887F88BB8FEFB8
:1002E0008ABB85EA9EE00197F1F700C000000E94FA
:1002F0005F0188E30E944D0186E00E944D0180E885
:100300000E944D018FE00E944D010895CF93C82FA8
:100310000E944101CBBBC298C19A89EF90E001973E
:10032000F1F700C000000E943801CF9108950F93AB
:100330001F93CF93DF938C01C0E0D0E014C02196CF
:100340000E948601C031D10521F480EC0E944D014C
:100350000AC0C032D10539F40E945F0180E80E94D2
:100360004D01C0E0D0E0F80181918F018111E7CF0C
:10037000DF91CF911F910F910895AF92BF92CF92CD
:10038000DF92EF92FF920F931F93CF93DF93CDB73E
:10039000DEB72A970FB6F894DEBF0FBECDBF8D3300
:1003A00009F09AC02091EB00E22FF0E000E010E0AD
:1003B0004FE3A12CB12C9F012A573F4FC12CD12CC8
:1003C00060C07B01EE0CFF1C660F771F660F771F66
:1003D000660F771F6E0D7F1D892F90E0C097680F05
:1003E000791F8D0106581040A217B30779F09D912F
:1003F00086ED890F823050F0892F8D7F8D3209F77D
:1004000005C06C2D7D2D02C06C2D7D2D4F3311F458
:100410005B012EC04B32A9F018F44A3231F028C0EB
:100420004D3261F04F3281F023C0C501869F5001EB
:10043000879FB00C969FB00C11241AC0A61AB70A59
:1004400017C0A60EB71E14C06115710529F0C501AD
:100450000E94B9025B010CC00E945F0180E790E03E
:100460000E94970181E08093EA001092EB003EC069
:100470000E171F0734F4D801AA57BF4F4C910F5FD6
:100480001F4F0E171F07A4F4D801AA57BF4F9C9106
:1004900086ED890F823008F4B4CF892F8D7F8D329D
:1004A00009F4B2CFD801A957BF4F6C2D7D2D89CF4C
:1004B0000E945F014AE050E0BE016F5F7F4FC501BF
:1004C0000E94CD02CE0101960E9497011092EB008E
:1004D00081E08093EA000AC09091EB00E92FF0E000
:1004E000EA57FF4F80839F5F9093EB002A960FB6E9
:1004F000F894DEBF0FBECDBFDF91CF911F910F915A
:10050000FF90EF90DF90CF90BF90AF9008950E9442
:1005100063011092EB000E94490083ED90E3019784
:10052000F1F700C000008AE790E00E94970183ED98
:1005300090E30197F1F700C000000E945F01109264
:10054000EA000E945200C82F8F3319F08134C9F39A
:1005500005C00E945F011092EA00F3CF8091EA008B
:10056000811103C08C2F0E9486018C2F0E94BD0137
:10057000E8CFAA1BBB1B51E107C0AA1FBB1FA617D0
:10058000B70710F0A61BB70B881F991F5A95A9F73C
:1005900080959095BC01CD0108954532510520F418
:1005A000423010F00C94D802FB011082CB01089568
:1005B000BB274A3031F4992322F4BDE2909581950E
:1005C0009F4F0C94E402BB27FB015527AA27880FF5
:1005D000991FAA1FA41710F0A41B83955051B9F7B7
:1005E000A05DAA3308F0A95DA193009779F7B11136
:1005F000B1931192CB010C94FD02DC01FC01672F39
:1006000071917723E1F7329704C07C916D937083E9
:0E0610006291AE17BF07C8F30895F894FFCFAC
:10061E0004000500060007000000010002000300B0
:10062E004572726F722034303400686920457372DF
:06063E00616120210000B3
:00000001FF
